{
  "_format": "hh3-artifact-1",
  "contractName": "Request",
  "sourceName": "contracts/Request.sol",
  "abi": [
    {
      "inputs": [
        {
          "internalType": "bytes32",
          "name": "calculatedCommandHash",
          "type": "bytes32"
        },
        {
          "internalType": "address",
          "name": "rolesAddress",
          "type": "address"
        },
        {
          "internalType": "address",
          "name": "reputationAddress",
          "type": "address"
        }
      ],
      "stateMutability": "nonpayable",
      "type": "constructor"
    },
    {
      "anonymous": false,
      "inputs": [
        {
          "indexed": true,
          "internalType": "address",
          "name": "account",
          "type": "address"
        }
      ],
      "name": "AuditorAssigned",
      "type": "event"
    },
    {
      "anonymous": false,
      "inputs": [
        {
          "indexed": false,
          "internalType": "bytes32",
          "name": "hash",
          "type": "bytes32"
        },
        {
          "indexed": true,
          "internalType": "address",
          "name": "by",
          "type": "address"
        }
      ],
      "name": "AuditorResultAssigned",
      "type": "event"
    },
    {
      "anonymous": false,
      "inputs": [
        {
          "indexed": true,
          "internalType": "address",
          "name": "account",
          "type": "address"
        }
      ],
      "name": "ExecutorAssigned",
      "type": "event"
    },
    {
      "anonymous": false,
      "inputs": [
        {
          "indexed": true,
          "internalType": "address",
          "name": "auditedBy",
          "type": "address"
        },
        {
          "indexed": false,
          "internalType": "address",
          "name": "calculatedBy",
          "type": "address"
        },
        {
          "indexed": false,
          "internalType": "bytes32",
          "name": "executionHash",
          "type": "bytes32"
        },
        {
          "indexed": false,
          "internalType": "bytes32",
          "name": "auditHash",
          "type": "bytes32"
        }
      ],
      "name": "FaultyCalculationDetected",
      "type": "event"
    },
    {
      "anonymous": false,
      "inputs": [
        {
          "indexed": true,
          "internalType": "address",
          "name": "auditedBy",
          "type": "address"
        },
        {
          "indexed": false,
          "internalType": "address",
          "name": "calculatedBy",
          "type": "address"
        }
      ],
      "name": "FaultyCalculationFixed",
      "type": "event"
    },
    {
      "anonymous": false,
      "inputs": [
        {
          "indexed": true,
          "internalType": "address",
          "name": "calculatedBy",
          "type": "address"
        },
        {
          "indexed": false,
          "internalType": "address",
          "name": "auditedBy",
          "type": "address"
        },
        {
          "indexed": false,
          "internalType": "bytes32",
          "name": "resultHash",
          "type": "bytes32"
        }
      ],
      "name": "RequestFinished",
      "type": "event"
    },
    {
      "anonymous": false,
      "inputs": [
        {
          "indexed": false,
          "internalType": "bytes32",
          "name": "hash",
          "type": "bytes32"
        },
        {
          "indexed": true,
          "internalType": "address",
          "name": "by",
          "type": "address"
        }
      ],
      "name": "ResultAssigned",
      "type": "event"
    },
    {
      "inputs": [
        {
          "internalType": "address",
          "name": "potentialAuditor",
          "type": "address"
        }
      ],
      "name": "appointAuditor",
      "outputs": [],
      "stateMutability": "nonpayable",
      "type": "function"
    },
    {
      "inputs": [
        {
          "internalType": "address",
          "name": "potentialExecutor",
          "type": "address"
        }
      ],
      "name": "appointExecutor",
      "outputs": [],
      "stateMutability": "nonpayable",
      "type": "function"
    },
    {
      "inputs": [
        {
          "internalType": "bytes32",
          "name": "calculatedResultHash",
          "type": "bytes32"
        }
      ],
      "name": "assignAuditResult",
      "outputs": [],
      "stateMutability": "nonpayable",
      "type": "function"
    },
    {
      "inputs": [
        {
          "internalType": "bytes32",
          "name": "calculatedResultHash",
          "type": "bytes32"
        }
      ],
      "name": "assignResult",
      "outputs": [],
      "stateMutability": "nonpayable",
      "type": "function"
    },
    {
      "inputs": [],
      "name": "auditor",
      "outputs": [
        {
          "internalType": "address",
          "name": "",
          "type": "address"
        }
      ],
      "stateMutability": "view",
      "type": "function"
    },
    {
      "inputs": [],
      "name": "auditorResultHash",
      "outputs": [
        {
          "internalType": "bytes32",
          "name": "",
          "type": "bytes32"
        }
      ],
      "stateMutability": "view",
      "type": "function"
    },
    {
      "inputs": [],
      "name": "commandHash",
      "outputs": [
        {
          "internalType": "bytes32",
          "name": "",
          "type": "bytes32"
        }
      ],
      "stateMutability": "view",
      "type": "function"
    },
    {
      "inputs": [],
      "name": "currentState",
      "outputs": [
        {
          "internalType": "enum Request.State",
          "name": "",
          "type": "uint8"
        }
      ],
      "stateMutability": "view",
      "type": "function"
    },
    {
      "inputs": [],
      "name": "executor",
      "outputs": [
        {
          "internalType": "address",
          "name": "",
          "type": "address"
        }
      ],
      "stateMutability": "view",
      "type": "function"
    },
    {
      "inputs": [],
      "name": "faultyResult",
      "outputs": [
        {
          "internalType": "bool",
          "name": "",
          "type": "bool"
        }
      ],
      "stateMutability": "view",
      "type": "function"
    },
    {
      "inputs": [],
      "name": "getInformation",
      "outputs": [
        {
          "internalType": "enum Request.State",
          "name": "state",
          "type": "uint8"
        },
        {
          "internalType": "address",
          "name": "owner_",
          "type": "address"
        },
        {
          "internalType": "address",
          "name": "executor_",
          "type": "address"
        },
        {
          "internalType": "address",
          "name": "auditor_",
          "type": "address"
        },
        {
          "internalType": "bytes32",
          "name": "commandHash_",
          "type": "bytes32"
        },
        {
          "internalType": "bytes32",
          "name": "resultHash_",
          "type": "bytes32"
        },
        {
          "internalType": "bytes32",
          "name": "auditorResultHash_",
          "type": "bytes32"
        },
        {
          "internalType": "bool",
          "name": "faultyResult_",
          "type": "bool"
        }
      ],
      "stateMutability": "view",
      "type": "function"
    },
    {
      "inputs": [],
      "name": "owner",
      "outputs": [
        {
          "internalType": "address",
          "name": "",
          "type": "address"
        }
      ],
      "stateMutability": "view",
      "type": "function"
    },
    {
      "inputs": [],
      "name": "reputation",
      "outputs": [
        {
          "internalType": "contract Reputation",
          "name": "",
          "type": "address"
        }
      ],
      "stateMutability": "view",
      "type": "function"
    },
    {
      "inputs": [],
      "name": "resultHash",
      "outputs": [
        {
          "internalType": "bytes32",
          "name": "",
          "type": "bytes32"
        }
      ],
      "stateMutability": "view",
      "type": "function"
    },
    {
      "inputs": [],
      "name": "roles",
      "outputs": [
        {
          "internalType": "contract Roles",
          "name": "",
          "type": "address"
        }
      ],
      "stateMutability": "view",
      "type": "function"
    }
  ],
  "bytecode": "0x608060405234801561000f575f5ffd5b50604051611ff3380380611ff38339818101604052810190610031919061031f565b3360025f6101000a81548173ffffffffffffffffffffffffffffffffffffffff021916908373ffffffffffffffffffffffffffffffffffffffff160217905550815f5f6101000a81548173ffffffffffffffffffffffffffffffffffffffff021916908373ffffffffffffffffffffffffffffffffffffffff1602179055508060015f6101000a81548173ffffffffffffffffffffffffffffffffffffffff021916908373ffffffffffffffffffffffffffffffffffffffff1602179055505f5f9054906101000a900473ffffffffffffffffffffffffffffffffffffffff1673ffffffffffffffffffffffffffffffffffffffff166391d148545f5f9054906101000a900473ffffffffffffffffffffffffffffffffffffffff1673ffffffffffffffffffffffffffffffffffffffff16637a01a1da6040518163ffffffff1660e01b8152600401602060405180830381865afa158015610195573d5f5f3e3d5ffd5b505050506040513d601f19601f820116820180604052508101906101b9919061036f565b336040518363ffffffff1660e01b81526004016101d79291906103b8565b602060405180830381865afa1580156101f2573d5f5f3e3d5ffd5b505050506040513d601f19601f820116820180604052508101906102169190610414565b610255576040517f08c379a000000000000000000000000000000000000000000000000000000000815260040161024c90610499565b60405180910390fd5b826005819055505f600460146101000a81548160ff02191690836004811115610281576102806104b7565b5b02179055505050506104e4565b5f5ffd5b5f819050919050565b6102a481610292565b81146102ae575f5ffd5b50565b5f815190506102bf8161029b565b92915050565b5f73ffffffffffffffffffffffffffffffffffffffff82169050919050565b5f6102ee826102c5565b9050919050565b6102fe816102e4565b8114610308575f5ffd5b50565b5f81519050610319816102f5565b92915050565b5f5f5f606084860312156103365761033561028e565b5b5f610343868287016102b1565b93505060206103548682870161030b565b92505060406103658682870161030b565b9150509250925092565b5f602082840312156103845761038361028e565b5b5f610391848285016102b1565b91505092915050565b6103a381610292565b82525050565b6103b2816102e4565b82525050565b5f6040820190506103cb5f83018561039a565b6103d860208301846103a9565b9392505050565b5f8115159050919050565b6103f3816103df565b81146103fd575f5ffd5b50565b5f8151905061040e816103ea565b92915050565b5f602082840312156104295761042861028e565b5b5f61043684828501610400565b91505092915050565b5f82825260208201905092915050565b7f6275796572206f6e6c79000000000000000000000000000000000000000000005f82015250565b5f610483600a8361043f565b915061048e8261044f565b602082019050919050565b5f6020820190508181035f8301526104b081610477565b9050919050565b7f4e487b71000000000000000000000000000000000000000000000000000000005f52602160045260245ffd5b611b02806104f15f395ff3fe608060405234801561000f575f5ffd5b50600436106100f3575f3560e01c806372aacc1011610095578063c0da1e6811610064578063c0da1e681461023b578063c34c08e514610260578063c52164c61461027e578063f02adcf11461029c576100f3565b806372aacc10146101c7578063881a3354146101e35780638da5cb5b14610201578063a69582ab1461021f576100f3565b8063392f5f64116100d1578063392f5f641461014f5780633ec045a61461016d578063686709e51461018b5780637120a6c1146101a9576100f3565b8063094abf43146100f75780630c3f6acf14610115578063303e5c5414610133575b5f5ffd5b6100ff6102b8565b60405161010c919061142e565b60405180910390f35b61011d6102be565b60405161012a91906114ba565b60405180910390f35b61014d60048036038101906101489190611531565b6102d1565b005b6101576106c5565b60405161016491906115b7565b60405180910390f35b6101756106e9565b60405161018291906115df565b60405180910390f35b61019361070e565b6040516101a09190611612565b60405180910390f35b6101b1610720565b6040516101be919061142e565b60405180910390f35b6101e160048036038101906101dc9190611655565b610726565b005b6101eb610b52565b6040516101f8919061142e565b60405180910390f35b610209610b58565b60405161021691906115df565b60405180910390f35b61023960048036038101906102349190611655565b610b7d565b005b610243610ec5565b604051610257989796959493929190611680565b60405180910390f35b610268610f75565b60405161027591906115df565b60405180910390f35b610286610f9a565b604051610293919061171c565b60405180910390f35b6102b660048036038101906102b19190611531565b610fbf565b005b60055481565b600460149054906101000a900460ff1681565b5f5f9054906101000a900473ffffffffffffffffffffffffffffffffffffffff1673ffffffffffffffffffffffffffffffffffffffff166391d148545f5f9054906101000a900473ffffffffffffffffffffffffffffffffffffffff1673ffffffffffffffffffffffffffffffffffffffff166375b238fc6040518163ffffffff1660e01b8152600401602060405180830381865afa158015610376573d5f5f3e3d5ffd5b505050506040513d601f19601f8201168201806040525081019061039a9190611749565b336040518363ffffffff1660e01b81526004016103b8929190611774565b602060405180830381865afa1580156103d3573d5f5f3e3d5ffd5b505050506040513d601f19601f820116820180604052508101906103f791906117c5565b610436576040517f08c379a000000000000000000000000000000000000000000000000000000000815260040161042d9061184a565b60405180910390fd5b5f80600481111561044a57610449611447565b5b600460149054906101000a900460ff16600481111561046c5761046b611447565b5b146104ac576040517f08c379a00000000000000000000000000000000000000000000000000000000081526004016104a3906118b2565b60405180910390fd5b60015f5f9054906101000a900473ffffffffffffffffffffffffffffffffffffffff1673ffffffffffffffffffffffffffffffffffffffff166391d148545f5f9054906101000a900473ffffffffffffffffffffffffffffffffffffffff1673ffffffffffffffffffffffffffffffffffffffff1663dbe4613d6040518163ffffffff1660e01b8152600401602060405180830381865afa158015610553573d5f5f3e3d5ffd5b505050506040513d601f19601f820116820180604052508101906105779190611749565b856040518363ffffffff1660e01b8152600401610595929190611774565b602060405180830381865afa1580156105b0573d5f5f3e3d5ffd5b505050506040513d601f19601f820116820180604052508101906105d491906117c5565b610613576040517f08c379a000000000000000000000000000000000000000000000000000000000815260040161060a9061191a565b60405180910390fd5b8260035f6101000a81548173ffffffffffffffffffffffffffffffffffffffff021916908373ffffffffffffffffffffffffffffffffffffffff1602179055508273ffffffffffffffffffffffffffffffffffffffff167f34409721a98477c3e5b7dadbf1cc822a54167c2475d08bc8ad012f0c532d257960405160405180910390a280600460146101000a81548160ff021916908360048111156106bb576106ba611447565b5b0217905550505050565b5f5f9054906101000a900473ffffffffffffffffffffffffffffffffffffffff1681565b60045f9054906101000a900473ffffffffffffffffffffffffffffffffffffffff1681565b60085f9054906101000a900460ff1681565b60075481565b3373ffffffffffffffffffffffffffffffffffffffff1660035f9054906101000a900473ffffffffffffffffffffffffffffffffffffffff1673ffffffffffffffffffffffffffffffffffffffff16146107b5576040517f08c379a00000000000000000000000000000000000000000000000000000000081526004016107ac90611982565b60405180910390fd5b60018060048111156107ca576107c9611447565b5b600460149054906101000a900460ff1660048111156107ec576107eb611447565b5b1461082c576040517f08c379a0000000000000000000000000000000000000000000000000000000008152600401610823906118b2565b60405180910390fd5b6002826006819055503373ffffffffffffffffffffffffffffffffffffffff167f3d1f05e48c2d6e20684befa05f363297406e5146841657344ab0a37711e001a18460405161087b919061142e565b60405180910390a25f5f1b60075414610b235760065460075403610a05575f60085f6101000a81548160ff02191690831515021790555060045f9054906101000a900473ffffffffffffffffffffffffffffffffffffffff1673ffffffffffffffffffffffffffffffffffffffff167fd4d420112d801fa1903276af256d4bb32a588fa6172a075dd9636c25f0e3e16360035f9054906101000a900473ffffffffffffffffffffffffffffffffffffffff1660405161093a91906115df565b60405180910390a260048060146101000a81548160ff0219169083600481111561096757610966611447565b5b021790555060035f9054906101000a900473ffffffffffffffffffffffffffffffffffffffff1673ffffffffffffffffffffffffffffffffffffffff167fec80f369d6de389e2bd83b9f47464da874697ba88f430c27e6df3329bb96a9d360045f9054906101000a900473ffffffffffffffffffffffffffffffffffffffff166006546040516109f89291906119a0565b60405180910390a2610b22565b600160085f6101000a81548160ff02191690831515021790555060045f9054906101000a900473ffffffffffffffffffffffffffffffffffffffff1673ffffffffffffffffffffffffffffffffffffffff167fab7cb3f235a0b8665ab6f4efa957d3df20a4ee466b6ea04cd055e1676be4da4560035f9054906101000a900473ffffffffffffffffffffffffffffffffffffffff16600654600754604051610aaf939291906119c7565b60405180910390a25f60035f6101000a81548173ffffffffffffffffffffffffffffffffffffffff021916908373ffffffffffffffffffffffffffffffffffffffff1602179055505f600460146101000a81548160ff02191690836004811115610b1c57610b1b611447565b5b02179055505b5b80600460146101000a81548160ff02191690836004811115610b4857610b47611447565b5b0217905550505050565b60065481565b60025f9054906101000a900473ffffffffffffffffffffffffffffffffffffffff1681565b3373ffffffffffffffffffffffffffffffffffffffff1660045f9054906101000a900473ffffffffffffffffffffffffffffffffffffffff1673ffffffffffffffffffffffffffffffffffffffff1614610c0c576040517f08c379a0000000000000000000000000000000000000000000000000000000008152600401610c0390611a46565b60405180910390fd5b6002806004811115610c2157610c20611447565b5b600460149054906101000a900460ff166004811115610c4357610c42611447565b5b14610c83576040517f08c379a0000000000000000000000000000000000000000000000000000000008152600401610c7a906118b2565b60405180910390fd5b816007819055503373ffffffffffffffffffffffffffffffffffffffff167fcb2d4fba15e74fb62dd6a7e9bbe26c147e66633227aa1f8591d16fd39346922083604051610cd0919061142e565b60405180910390a28160065414610e0257600160085f6101000a81548160ff02191690831515021790555060045f9054906101000a900473ffffffffffffffffffffffffffffffffffffffff1673ffffffffffffffffffffffffffffffffffffffff167fab7cb3f235a0b8665ab6f4efa957d3df20a4ee466b6ea04cd055e1676be4da4560035f9054906101000a900473ffffffffffffffffffffffffffffffffffffffff16600654600754604051610d8b939291906119c7565b60405180910390a25f60035f6101000a81548173ffffffffffffffffffffffffffffffffffffffff021916908373ffffffffffffffffffffffffffffffffffffffff1602179055505f600460146101000a81548160ff02191690836004811115610df857610df7611447565b5b0217905550610ec1565b60048060146101000a81548160ff02191690836004811115610e2757610e26611447565b5b021790555060035f9054906101000a900473ffffffffffffffffffffffffffffffffffffffff1673ffffffffffffffffffffffffffffffffffffffff167fec80f369d6de389e2bd83b9f47464da874697ba88f430c27e6df3329bb96a9d360045f9054906101000a900473ffffffffffffffffffffffffffffffffffffffff16600654604051610eb89291906119a0565b60405180910390a25b5050565b5f5f5f5f5f5f5f5f600460149054906101000a900460ff1660025f9054906101000a900473ffffffffffffffffffffffffffffffffffffffff1660035f9054906101000a900473ffffffffffffffffffffffffffffffffffffffff1660045f9054906101000a900473ffffffffffffffffffffffffffffffffffffffff1660055460065460075460085f9054906101000a900460ff16975097509750975097509750975097509091929394959697565b60035f9054906101000a900473ffffffffffffffffffffffffffffffffffffffff1681565b60015f9054906101000a900473ffffffffffffffffffffffffffffffffffffffff1681565b5f5f9054906101000a900473ffffffffffffffffffffffffffffffffffffffff1673ffffffffffffffffffffffffffffffffffffffff166391d148545f5f9054906101000a900473ffffffffffffffffffffffffffffffffffffffff1673ffffffffffffffffffffffffffffffffffffffff166375b238fc6040518163ffffffff1660e01b8152600401602060405180830381865afa158015611064573d5f5f3e3d5ffd5b505050506040513d601f19601f820116820180604052508101906110889190611749565b336040518363ffffffff1660e01b81526004016110a6929190611774565b602060405180830381865afa1580156110c1573d5f5f3e3d5ffd5b505050506040513d601f19601f820116820180604052508101906110e591906117c5565b611124576040517f08c379a000000000000000000000000000000000000000000000000000000000815260040161111b9061184a565b60405180910390fd5b600180600481111561113957611138611447565b5b600460149054906101000a900460ff16600481111561115b5761115a611447565b5b1461119b576040517f08c379a0000000000000000000000000000000000000000000000000000000008152600401611192906118b2565b60405180910390fd5b60035f9054906101000a900473ffffffffffffffffffffffffffffffffffffffff1673ffffffffffffffffffffffffffffffffffffffff168273ffffffffffffffffffffffffffffffffffffffff160361122a576040517f08c379a000000000000000000000000000000000000000000000000000000000815260040161122190611aae565b60405180910390fd5b5f5f9054906101000a900473ffffffffffffffffffffffffffffffffffffffff1673ffffffffffffffffffffffffffffffffffffffff166391d148545f5f9054906101000a900473ffffffffffffffffffffffffffffffffffffffff1673ffffffffffffffffffffffffffffffffffffffff1663dbe4613d6040518163ffffffff1660e01b8152600401602060405180830381865afa1580156112cf573d5f5f3e3d5ffd5b505050506040513d601f19601f820116820180604052508101906112f39190611749565b846040518363ffffffff1660e01b8152600401611311929190611774565b602060405180830381865afa15801561132c573d5f5f3e3d5ffd5b505050506040513d601f19601f8201168201806040525081019061135091906117c5565b61138f576040517f08c379a00000000000000000000000000000000000000000000000000000000081526004016113869061191a565b60405180910390fd5b8160045f6101000a81548173ffffffffffffffffffffffffffffffffffffffff021916908373ffffffffffffffffffffffffffffffffffffffff1602179055508173ffffffffffffffffffffffffffffffffffffffff167fd23bcfb31a1acf9b499949b0e6f2a060f57d2b3a445d13cc8c296a5050833a6f60405160405180910390a25050565b5f819050919050565b61142881611416565b82525050565b5f6020820190506114415f83018461141f565b92915050565b7f4e487b71000000000000000000000000000000000000000000000000000000005f52602160045260245ffd5b6005811061148557611484611447565b5b50565b5f81905061149582611474565b919050565b5f6114a482611488565b9050919050565b6114b48161149a565b82525050565b5f6020820190506114cd5f8301846114ab565b92915050565b5f5ffd5b5f73ffffffffffffffffffffffffffffffffffffffff82169050919050565b5f611500826114d7565b9050919050565b611510816114f6565b811461151a575f5ffd5b50565b5f8135905061152b81611507565b92915050565b5f60208284031215611546576115456114d3565b5b5f6115538482850161151d565b91505092915050565b5f819050919050565b5f61157f61157a611575846114d7565b61155c565b6114d7565b9050919050565b5f61159082611565565b9050919050565b5f6115a182611586565b9050919050565b6115b181611597565b82525050565b5f6020820190506115ca5f8301846115a8565b92915050565b6115d9816114f6565b82525050565b5f6020820190506115f25f8301846115d0565b92915050565b5f8115159050919050565b61160c816115f8565b82525050565b5f6020820190506116255f830184611603565b92915050565b61163481611416565b811461163e575f5ffd5b50565b5f8135905061164f8161162b565b92915050565b5f6020828403121561166a576116696114d3565b5b5f61167784828501611641565b91505092915050565b5f610100820190506116945f83018b6114ab565b6116a1602083018a6115d0565b6116ae60408301896115d0565b6116bb60608301886115d0565b6116c8608083018761141f565b6116d560a083018661141f565b6116e260c083018561141f565b6116ef60e0830184611603565b9998505050505050505050565b5f61170682611586565b9050919050565b611716816116fc565b82525050565b5f60208201905061172f5f83018461170d565b92915050565b5f815190506117438161162b565b92915050565b5f6020828403121561175e5761175d6114d3565b5b5f61176b84828501611735565b91505092915050565b5f6040820190506117875f83018561141f565b61179460208301846115d0565b9392505050565b6117a4816115f8565b81146117ae575f5ffd5b50565b5f815190506117bf8161179b565b92915050565b5f602082840312156117da576117d96114d3565b5b5f6117e7848285016117b1565b91505092915050565b5f82825260208201905092915050565b7f61646d696e206f6e6c79000000000000000000000000000000000000000000005f82015250565b5f611834600a836117f0565b915061183f82611800565b602082019050919050565b5f6020820190508181035f83015261186181611828565b9050919050565b7f496e76616c696420737461746520666f722074686973206f7065726174696f6e5f82015250565b5f61189c6020836117f0565b91506118a782611868565b602082019050919050565b5f6020820190508181035f8301526118c981611890565b9050919050565b7f63616e646964617465206e6f7420612073656c6c6572000000000000000000005f82015250565b5f6119046016836117f0565b915061190f826118d0565b602082019050919050565b5f6020820190508181035f830152611931816118f8565b9050919050565b7f6578656375746f72206f6e6c79000000000000000000000000000000000000005f82015250565b5f61196c600d836117f0565b915061197782611938565b602082019050919050565b5f6020820190508181035f83015261199981611960565b9050919050565b5f6040820190506119b35f8301856115d0565b6119c0602083018461141f565b9392505050565b5f6060820190506119da5f8301866115d0565b6119e7602083018561141f565b6119f4604083018461141f565b949350505050565b7f61756469746f72206f6e6c7900000000000000000000000000000000000000005f82015250565b5f611a30600c836117f0565b9150611a3b826119fc565b602082019050919050565b5f6020820190508181035f830152611a5d81611a24565b9050919050565b7f61756469746f722063616e6e6f74206265206578656375746f720000000000005f82015250565b5f611a98601a836117f0565b9150611aa382611a64565b602082019050919050565b5f6020820190508181035f830152611ac581611a8c565b905091905056fea26469706673582212205c70516c7f90009be0a4559316230511342372c2dae63f0273e265a2725127c464736f6c634300081c0033",
  "linkReferences": {},
  "deployedLinkReferences": {},
  "immutableReferences": {},
  "inputSourceName": "project/contracts/Request.sol",
  "buildInfoId": "solc-0_8_28-c62f85cb3e8a8369aaafaf7c03a484344ffa46c2"
}